:0400000078EF09F09C
:10060000002020202020202020202020202020200A
:100610002000486561743A4F464620202020202063
:1006200020200056656C6F636974793A3120202070
:1006300020202000302070617261206465736C6935
:10064000676172004D6F646F3A50616472616F2030
:10065000200050616472616F2020202020005072C1
:10066000657373696F6E6520310053656361646FF4
:1006700072204F464600466F6361646F2020202041
:100680000053696C656E63696F736F004F4E200095
:05069000320033000000
:10069600000E946E000E966EF0EC07F0A0EC09F0DA
:1006A60091EC09F0829A000E66EC08F0000E9CECC4
:1006B60008F0000E836E000E816E82908490000E0C
:1006C600096E000ED2EC08F06A0E096E060E0A6E6E
:1006D6002FEC09F0000E096E010ED2EC08F05E0E4A
:1006E600096E060E0A6E2FEC09F0000E096E020E58
:1006F600D2EC08F0010E096E060E0A6E2FEC09F018
:10070600000E096E030ED2EC08F0010E096E060EFD
:100716000A6E2FEC09F0F4EC06F09BEC09F001C030
:100726000EF002C00FF00EA69BEF03F09DEF03F054
:100736008EEF03F0010E836E000E096E000ED2ECF2
:1007460008F0230E096E060E0A6E2FEC09F0000E55
:10075600096E010ED2EC08F0120E096E060E0A6E34
:100766002FEC09F0000E096E020ED2EC08F0440ED2
:10077600096E060E0A6E2FEC09F0000E096E030EC6
:10078600D2EC08F0340E096E060E0A6E2FEC09F054
:10079600200E9CEC08F0320E66EC08F0F4EC06F045
:1007A6009BEC09F00E50011809E10F500218D8B45D
:1007B600DFEF03F0E1EF03F0D1EF03F09BEC09F07C
:1007C60001C00EF002C00FF00EA6ECEF03F0EEEF44
:1007D60003F0FEEF03F0090E096E000ED2EC08F0EE
:1007E600680E096E060E0A6E2FEC09F0200E9CECC0
:1007F60008F0800E836E0EAE03EF04F005EF04F0F2
:1008060015EF04F0090E096E000ED2EC08F0900EFA
:10081600096E060E0A6E2FEC09F0430E9CEC08F0EA
:10082600C00E836E0FA61AEF04F01CEF04F02CEF37
:1008360004F0090E096E000ED2EC08F0920E096E55
:10084600060E0A6E2FEC09F0630E9CEC08F0E00E23
:10085600836E0EA431EF04F033EF04F041EF04F0A1
:10086600050E096E010ED2EC08F0720E096E060E28
:100876000A6E2FEC09F0829A000E816E0EAC46EFDE
:1008860004F048EF04F056EF04F0050E096E010E71
:10089600D2EC08F08C0E096E060E0A6E2FEC09F0EB
:1008A600828AF00E816E0EA25BEF04F05DEF04F01B
:1008B6006DEF04F0050E096E020ED2EC08F0520E32
:1008C600096E060E0A6E2FEC09F082908490320EA5
:1008D60066EC08F00EAA72EF04F074EF04F084EFF1
:1008E60004F0050E096E020ED2EC08F0760E096EC3
:1008F600060E0A6E2FEC09F082808490320E66ECAA
:1009060008F00FA289EF04F08BEF04F09BEF04F0E0
:10091600050E096E020ED2EC08F0810E096E060E67
:100926000A6E2FEC09F082808480000E66EC08F0D7
:100936000EA8A0EF04F0A2EF04F0D1EF03F055EFFC
:1009460003F000EF00F002BEB4EF04F0025007E13E
:10095600080E015CD8B0B2EF04F0B4EF04F0DEEF9D
:1009660004F003500410D8B4BBEF04F0BDEF04F05C
:10097600CDEF04F001C005F0010E066E052AC6EFA4
:1009860004F0D8900636052EC4EF04F006509212F5
:10099600CCEF05F001C005F0010E066E052AD6EF74
:1009A60004F0D8900636052ED4EF04F00650FF0A60
:1009B6009216CCEF05F002BEECEF04F0025007E110
:1009C600100E015CD8B0EAEF04F0ECEF04F01AEF79
:1009D60005F003500410D8B4F3EF04F0F5EF04F07B
:1009E60007EF05F001C005F0F80E0526010E066EAC
:1009F600052A00EF05F0D8900636052EFEEF04F026
:100A060006509312CCEF05F001C005F0F80E05264E
:100A1600010E066E052A12EF05F0D8900636052E51
:100A260010EF05F00650FF0A9316CCEF05F002BE54
:100A360028EF05F0025007E1180E015CD8B026EF4A
:100A460005F028EF05F056EF05F003500410D8B472
:100A56002FEF05F031EF05F043EF05F001C005F08B
:100A6600F00E0526010E066E052A3CEF05F0D8901D
:100A76000636052E3AEF05F006509412CCEF05F037
:100A860001C005F0F00E0526010E066E052A4EEF92
:100A960005F0D8900636052E4CEF05F00650FF0AF5
:100AA6009416CCEF05F002BE64EF05F0025007E1A4
:100AB600200E015CD8B062EF05F064EF05F092EF0E
:100AC60005F003500410D8B46BEF05F06DEF05F098
:100AD6007FEF05F001C005F0E80E0526010E066E53
:100AE600052A78EF05F0D8900636052E76EF05F044
:100AF60006509512CCEF05F001C005F0E80E05266C
:100B0600010E066E052A8AEF05F0D8900636052EE8
:100B160088EF05F00650FF0A9516CCEF05F002BEE9
:100B2600A0EF05F0025007E1280E015CD8B09EEF59
:100B360005F0A0EF05F0CCEF05F003500410D8B493
:100B4600A7EF05F0A9EF05F0BBEF05F001C005F032
:100B5600E00E0526010E066E052AB4EF05F0D890C4
:100B66000636052EB2EF05F006509612CCEF05F0CC
:100B760001C005F0E00E0526010E066E052AC6EF39
:100B860005F0D8900636052EC4EF05F00650FF0A8C
:100B96009616120002BEDBEF05F0025007E1080EC2
:100BA600015CD8B0D9EF05F0DBEF05F005EF06F0F4
:100BB60003500410D8B4E2EF05F0E4EF05F0F4EFCB
:100BC60005F001C005F0010E066E052AEDEF05F0F1
:100BD600D8900636052EEBEF05F006508012F3EF9F
:100BE60006F001C005F0010E066E052AFDEF05F0C0
:100BF600D8900636052EFBEF05F00650FF0A801644
:100C0600F3EF06F002BE13EF06F0025007E1100EF6
:100C1600015CD8B011EF06F013EF06F041EF06F0D5
:100C2600F80E0126FF0E022203500410D8B41EEF60
:100C360006F020EF06F030EF06F001C005F0010ED9
:100C4600066E052A29EF06F0D8900636052E27EF00
:100C560006F006508112F3EF06F001C005F0010E12
:100C6600066E052A39EF06F0D8900636052E37EFC0
:100C760006F00650FF0A8116F3EF06F002BE4FEFAC
:100C860006F0025007E1180E015CD8B04DEF06F0F1
:100C96004FEF06F07DEF06F0F00E0126FF0E022262
:100CA60003500410D8B45AEF06F05CEF06F06CEF70
:100CB60006F001C005F0010E066E052A65EF06F086
:100CC600D8900636052E63EF06F006508212F3EF33
:100CD60006F001C005F0010E066E052A75EF06F056
:100CE600D8900636052E73EF06F00650FF0A8216D8
:100CF600F3EF06F002BE8BEF06F0025007E1200E7E
:100D0600015CD8B089EF06F08BEF06F0B9EF06F07C
:100D1600E80E0126FF0E022203500410D8B496EF07
:100D260006F098EF06F0A8EF06F001C005F0010EF8
:100D3600066E052AA1EF06F0D8900636052E9FEF1F
:100D460006F006508312F3EF06F001C005F0010E1F
:100D5600066E052AB1EF06F0D8900636052EAFEFDF
:100D660006F00650FF0A8316F3EF06F002BEC7EF41
:100D760006F0025007E1280E015CD8B0C5EF06F078
:100D8600C7EF06F0F3EF06F0E00E0126FF0E022293
:100D960003500410D8B4D2EF06F0D4EF06F0E4EF17
:100DA60006F001C005F0010E066E052ADDEF06F01D
:100DB600D8900636052EDBEF06F006508412F3EFC8
:100DC60006F001C005F0010E066E052AEDEF06F0ED
:100DD600D8900636052EEBEF06F00650FF0A84166D
:100DE600120083CF06F00F0E9512000E0A6EF80E53
:100DF60093160AC001F0010E026E012A05EF07F0F4
:100E0600D8900236012E03EF07F002509312070E18
:100E160081120AC001F0010E026E012A15EF07F0D9
:100E2600D8900236012E13EF07F00250FF0A811602
:100E3600000E086E000E076E074A082A08BE2DEF40
:100E460007F0085009E10A0E075CD8A02DEF07F05D
:100E56002FEF07F01FEF07F0000E096E09C001F033
:100E6600010E026E012A3AEF07F0D8900236012EE3
:100E760038EF07F0025083140009D8A445EF07F0B5
:100E860047EF07F05FEF07F00A50040DF35009240F
:100E9600016E010E026E000E036E012A56EF07F078
:100EA600D89002360336012E53EF07F00250121285
:100EB6000350131279EF07F00A50040DF35009247A
:100EC600016E010E026E000E036E012A6EEF07F030
:100ED600D89002360336012E6BEF07F0021C046E23
:100EE600031C056E0450121605501316092A030E2C
:100EF600096480EF07F082EF07F031EF07F00A2A66
:100F0600020E0A6489EF07F08BEF07F0FAEF06F09E
:100F16001250101807E113501118D8A495EF07F0D6
:100F260097EF07F09AEF07F01606A0EF07F00A0E04
:100F3600166E12C010F013C011F01650D8A4A6EF0A
:100F460007F0A8EF07F0ACEF07F010C014F011C0DF
:100F560015F006C083FF000E956E1200086E83CF53
:100F660007F0000E956E000E026E220E016E000E48
:100F7600046E000E036ECDEC05F008C083FF000E74
:100F8600026E210E016E000E046E010E036ECDEC94
:100F960005F0000E026E210E016E000E046E000EAC
:100FA600036ECDEC05F007C083FF020E0818D8B417
:100FB600DFEF07F0E1EF07F0E9EF07F00804D8A448
:100FC600E7EF07F0E9EF07F0EDEF07F06AEC09F05D
:100FD600EFEF07F085EC09F01200000E026E220E0C
:100FE600016E000E046E000E036EA6EC04F0000EF9
:100FF600026E210E016E000E046E000E036EA6EC4C
:1010060004F0000E956E6AEC09F06AEC09F06AECE1
:1010160009F06AEC09F06AEC09F0380EB1EC07F059
:101026006AEC09F06AEC09F0380EB1EC07F06AECEC
:1010360009F0380EB1EC07F0380EB1EC07F0060EE9
:10104600B1EC07F00C0EB1EC07F0010EB1EC07F0B5
:101056001200000E066E000E056E03500410D8B482
:1010660037EF08F039EF08F061EF08F0010E076E70
:1010760041EF08F0D89003360436072A04AE46EF4F
:1010860008F048EF08F03DEF08F0D8900536063630
:101096000350015C04500258D8A054EF08F056EFF4
:1010A60008F05BEF08F00350015E0450025A058019
:1010B600D89004320332072E48EF08F005C001F03D
:1010C60006C002F012000A6E010ECB24016E026AFF
:1010D600000E02220AC003F0046A57EC09F001C0B0
:1010E6000BF002C00CF00BC001F00CC002F0000EB9
:1010F600046E190E036E2CEC08F001C00BF002C052
:101106000CF0FF0E0B16030E0C160BC008F00CC0ED
:1011160009F0D89009320832D890093208320850BE
:10112600BB6E0BC008F0030E08160838F00BBA1297
:1011360012000A6E010ECB24016E026A000E022214
:101146000AC003F0046A57EC09F001C00BF002C0B4
:101156000CF00BC001F00CC002F0000E046E190E6C
:10116600036E2CEC08F001C00BF002C00CF0FF0E71
:101176000B16030E0C160BC008F00CC009F0D89025
:1011860009320832D890093208320850BE6E0BC0B8
:1011960008F0030E08160838F00BBD1212000B6E8D
:1011A6000B50D8A4D9EF08F0DBEF08F0DEEF08F01B
:1011B6000950800F0A6E0B04D8A4E4EF08F0E6EF9E
:1011C60008F0E9EF08F00950C00F0A6E020E0B187E
:1011D600D8A4F0EF08F0F2EF08F0F5EF08F00950A8
:1011E600900F0A6E030E0B18D8A4FCEF08F0FEEF62
:1011F60008F001EF09F00950D00F0A6E0A50B1EC61
:1012060007F01200076E83CF08F0000E956E000EF1
:10121600026E220E016E000E046E010E036ECDEC00
:1012260005F007C083FF000E026E210E016E000E50
:10123600046E010E036ECDEC05F0000E026E210E5B
:10124600016E000E046E000E036ECDEC05F008C0B4
:1012560083FF85EC09F01200000E0D6E42EF09F0D7
:101266000D5009240B6E000E0A200C6E0BC0F6FF03
:101276000CC0F7FF0800F55005EC09F00D2A0D50DB
:1012860009240B6E000E0A200C6E0BC0F6FF0CC074
:10129600F7FF0800F5500009D8A454EF09F056EFFF
:1012A60009F033EF09F0120001500302F3CF05F005
:1012B600F4CF06F001500402F35006260250030252
:1012C600F350062605C001F006C002F01200000E1B
:1012D600026E85EC09F0022A310E026475EF09F000
:1012E60077EF09F06CEF09F0120000EE10F0070E30
:1012F600EE6AE806FDE1000EF86E060EF76E0001D6
:101306004BEF03F0000E016E012A180E01648EEFFA
:1013160009F090EF09F087EF09F012009492949487
:10132600030ECA12CA840C0EBD120C0EBA1212009B
:1013360014C001F015C002F01200070E93160F0E2E
:0413460095121200EA
:020000040020DA
:08000000FFFFFFFFFFFFFFFF00
:020000040030CA
:0E000000FF027100FF8380FF0FC00FE00F4072
:00000001FF
